{
  "_format": "hh-sol-artifact-1",
  "contractName": "NFTMarketplace",
  "sourceName": "contracts/NFTMarketplace.sol",
  "abi": [
    {
      "inputs": [],
      "stateMutability": "nonpayable",
      "type": "constructor"
    },
    {
      "inputs": [
        {
          "internalType": "address",
          "name": "sender",
          "type": "address"
        },
        {
          "internalType": "uint256",
          "name": "tokenId",
          "type": "uint256"
        },
        {
          "internalType": "address",
          "name": "owner",
          "type": "address"
        }
      ],
      "name": "ERC721IncorrectOwner",
      "type": "error"
    },
    {
      "inputs": [
        {
          "internalType": "address",
          "name": "operator",
          "type": "address"
        },
        {
          "internalType": "uint256",
          "name": "tokenId",
          "type": "uint256"
        }
      ],
      "name": "ERC721InsufficientApproval",
      "type": "error"
    },
    {
      "inputs": [
        {
          "internalType": "address",
          "name": "approver",
          "type": "address"
        }
      ],
      "name": "ERC721InvalidApprover",
      "type": "error"
    },
    {
      "inputs": [
        {
          "internalType": "address",
          "name": "operator",
          "type": "address"
        }
      ],
      "name": "ERC721InvalidOperator",
      "type": "error"
    },
    {
      "inputs": [
        {
          "internalType": "address",
          "name": "owner",
          "type": "address"
        }
      ],
      "name": "ERC721InvalidOwner",
      "type": "error"
    },
    {
      "inputs": [
        {
          "internalType": "address",
          "name": "receiver",
          "type": "address"
        }
      ],
      "name": "ERC721InvalidReceiver",
      "type": "error"
    },
    {
      "inputs": [
        {
          "internalType": "address",
          "name": "sender",
          "type": "address"
        }
      ],
      "name": "ERC721InvalidSender",
      "type": "error"
    },
    {
      "inputs": [
        {
          "internalType": "uint256",
          "name": "tokenId",
          "type": "uint256"
        }
      ],
      "name": "ERC721NonexistentToken",
      "type": "error"
    },
    {
      "anonymous": false,
      "inputs": [
        {
          "indexed": true,
          "internalType": "address",
          "name": "owner",
          "type": "address"
        },
        {
          "indexed": true,
          "internalType": "address",
          "name": "approved",
          "type": "address"
        },
        {
          "indexed": true,
          "internalType": "uint256",
          "name": "tokenId",
          "type": "uint256"
        }
      ],
      "name": "Approval",
      "type": "event"
    },
    {
      "anonymous": false,
      "inputs": [
        {
          "indexed": true,
          "internalType": "address",
          "name": "owner",
          "type": "address"
        },
        {
          "indexed": true,
          "internalType": "address",
          "name": "operator",
          "type": "address"
        },
        {
          "indexed": false,
          "internalType": "bool",
          "name": "approved",
          "type": "bool"
        }
      ],
      "name": "ApprovalForAll",
      "type": "event"
    },
    {
      "anonymous": false,
      "inputs": [
        {
          "indexed": false,
          "internalType": "uint256",
          "name": "_fromTokenId",
          "type": "uint256"
        },
        {
          "indexed": false,
          "internalType": "uint256",
          "name": "_toTokenId",
          "type": "uint256"
        }
      ],
      "name": "BatchMetadataUpdate",
      "type": "event"
    },
    {
      "anonymous": false,
      "inputs": [
        {
          "indexed": true,
          "internalType": "uint256",
          "name": "tokenId",
          "type": "uint256"
        },
        {
          "indexed": false,
          "internalType": "address",
          "name": "seller",
          "type": "address"
        },
        {
          "indexed": false,
          "internalType": "address",
          "name": "owner",
          "type": "address"
        },
        {
          "indexed": false,
          "internalType": "uint256",
          "name": "price",
          "type": "uint256"
        },
        {
          "indexed": false,
          "internalType": "bool",
          "name": "sold",
          "type": "bool"
        }
      ],
      "name": "MarketItemCreated",
      "type": "event"
    },
    {
      "anonymous": false,
      "inputs": [
        {
          "indexed": false,
          "internalType": "uint256",
          "name": "_tokenId",
          "type": "uint256"
        }
      ],
      "name": "MetadataUpdate",
      "type": "event"
    },
    {
      "anonymous": false,
      "inputs": [
        {
          "indexed": true,
          "internalType": "address",
          "name": "from",
          "type": "address"
        },
        {
          "indexed": true,
          "internalType": "address",
          "name": "to",
          "type": "address"
        },
        {
          "indexed": true,
          "internalType": "uint256",
          "name": "tokenId",
          "type": "uint256"
        }
      ],
      "name": "Transfer",
      "type": "event"
    },
    {
      "inputs": [
        {
          "internalType": "address",
          "name": "to",
          "type": "address"
        },
        {
          "internalType": "uint256",
          "name": "tokenId",
          "type": "uint256"
        }
      ],
      "name": "approve",
      "outputs": [],
      "stateMutability": "nonpayable",
      "type": "function"
    },
    {
      "inputs": [
        {
          "internalType": "address",
          "name": "owner",
          "type": "address"
        }
      ],
      "name": "balanceOf",
      "outputs": [
        {
          "internalType": "uint256",
          "name": "",
          "type": "uint256"
        }
      ],
      "stateMutability": "view",
      "type": "function"
    },
    {
      "inputs": [
        {
          "internalType": "uint256",
          "name": "tokenId",
          "type": "uint256"
        }
      ],
      "name": "createMarketSale",
      "outputs": [],
      "stateMutability": "payable",
      "type": "function"
    },
    {
      "inputs": [
        {
          "internalType": "string",
          "name": "tokenURI",
          "type": "string"
        },
        {
          "internalType": "uint256",
          "name": "price",
          "type": "uint256"
        }
      ],
      "name": "createToken",
      "outputs": [
        {
          "internalType": "uint256",
          "name": "",
          "type": "uint256"
        }
      ],
      "stateMutability": "payable",
      "type": "function"
    },
    {
      "inputs": [],
      "name": "fetchItemsListed",
      "outputs": [
        {
          "components": [
            {
              "internalType": "uint256",
              "name": "tokenId",
              "type": "uint256"
            },
            {
              "internalType": "address payable",
              "name": "seller",
              "type": "address"
            },
            {
              "internalType": "address payable",
              "name": "owner",
              "type": "address"
            },
            {
              "internalType": "uint256",
              "name": "price",
              "type": "uint256"
            },
            {
              "internalType": "bool",
              "name": "sold",
              "type": "bool"
            }
          ],
          "internalType": "struct NFTMarketplace.MarketItem[]",
          "name": "",
          "type": "tuple[]"
        }
      ],
      "stateMutability": "view",
      "type": "function"
    },
    {
      "inputs": [],
      "name": "fetchMarketItems",
      "outputs": [
        {
          "components": [
            {
              "internalType": "uint256",
              "name": "tokenId",
              "type": "uint256"
            },
            {
              "internalType": "address payable",
              "name": "seller",
              "type": "address"
            },
            {
              "internalType": "address payable",
              "name": "owner",
              "type": "address"
            },
            {
              "internalType": "uint256",
              "name": "price",
              "type": "uint256"
            },
            {
              "internalType": "bool",
              "name": "sold",
              "type": "bool"
            }
          ],
          "internalType": "struct NFTMarketplace.MarketItem[]",
          "name": "",
          "type": "tuple[]"
        }
      ],
      "stateMutability": "view",
      "type": "function"
    },
    {
      "inputs": [],
      "name": "fetchMyNFTs",
      "outputs": [
        {
          "components": [
            {
              "internalType": "uint256",
              "name": "tokenId",
              "type": "uint256"
            },
            {
              "internalType": "address payable",
              "name": "seller",
              "type": "address"
            },
            {
              "internalType": "address payable",
              "name": "owner",
              "type": "address"
            },
            {
              "internalType": "uint256",
              "name": "price",
              "type": "uint256"
            },
            {
              "internalType": "bool",
              "name": "sold",
              "type": "bool"
            }
          ],
          "internalType": "struct NFTMarketplace.MarketItem[]",
          "name": "",
          "type": "tuple[]"
        }
      ],
      "stateMutability": "view",
      "type": "function"
    },
    {
      "inputs": [
        {
          "internalType": "uint256",
          "name": "tokenId",
          "type": "uint256"
        }
      ],
      "name": "getApproved",
      "outputs": [
        {
          "internalType": "address",
          "name": "",
          "type": "address"
        }
      ],
      "stateMutability": "view",
      "type": "function"
    },
    {
      "inputs": [],
      "name": "getListingPrice",
      "outputs": [
        {
          "internalType": "uint256",
          "name": "",
          "type": "uint256"
        }
      ],
      "stateMutability": "view",
      "type": "function"
    },
    {
      "inputs": [],
      "name": "getOwner",
      "outputs": [
        {
          "internalType": "address",
          "name": "",
          "type": "address"
        }
      ],
      "stateMutability": "view",
      "type": "function"
    },
    {
      "inputs": [
        {
          "internalType": "address",
          "name": "owner",
          "type": "address"
        },
        {
          "internalType": "address",
          "name": "operator",
          "type": "address"
        }
      ],
      "name": "isApprovedForAll",
      "outputs": [
        {
          "internalType": "bool",
          "name": "",
          "type": "bool"
        }
      ],
      "stateMutability": "view",
      "type": "function"
    },
    {
      "inputs": [],
      "name": "name",
      "outputs": [
        {
          "internalType": "string",
          "name": "",
          "type": "string"
        }
      ],
      "stateMutability": "view",
      "type": "function"
    },
    {
      "inputs": [
        {
          "internalType": "uint256",
          "name": "tokenId",
          "type": "uint256"
        }
      ],
      "name": "ownerOf",
      "outputs": [
        {
          "internalType": "address",
          "name": "",
          "type": "address"
        }
      ],
      "stateMutability": "view",
      "type": "function"
    },
    {
      "inputs": [
        {
          "internalType": "uint256",
          "name": "tokenId",
          "type": "uint256"
        },
        {
          "internalType": "uint256",
          "name": "price",
          "type": "uint256"
        }
      ],
      "name": "resellToken",
      "outputs": [],
      "stateMutability": "payable",
      "type": "function"
    },
    {
      "inputs": [
        {
          "internalType": "address",
          "name": "from",
          "type": "address"
        },
        {
          "internalType": "address",
          "name": "to",
          "type": "address"
        },
        {
          "internalType": "uint256",
          "name": "tokenId",
          "type": "uint256"
        }
      ],
      "name": "safeTransferFrom",
      "outputs": [],
      "stateMutability": "nonpayable",
      "type": "function"
    },
    {
      "inputs": [
        {
          "internalType": "address",
          "name": "from",
          "type": "address"
        },
        {
          "internalType": "address",
          "name": "to",
          "type": "address"
        },
        {
          "internalType": "uint256",
          "name": "tokenId",
          "type": "uint256"
        },
        {
          "internalType": "bytes",
          "name": "data",
          "type": "bytes"
        }
      ],
      "name": "safeTransferFrom",
      "outputs": [],
      "stateMutability": "nonpayable",
      "type": "function"
    },
    {
      "inputs": [
        {
          "internalType": "address",
          "name": "operator",
          "type": "address"
        },
        {
          "internalType": "bool",
          "name": "approved",
          "type": "bool"
        }
      ],
      "name": "setApprovalForAll",
      "outputs": [],
      "stateMutability": "nonpayable",
      "type": "function"
    },
    {
      "inputs": [
        {
          "internalType": "bytes4",
          "name": "interfaceId",
          "type": "bytes4"
        }
      ],
      "name": "supportsInterface",
      "outputs": [
        {
          "internalType": "bool",
          "name": "",
          "type": "bool"
        }
      ],
      "stateMutability": "view",
      "type": "function"
    },
    {
      "inputs": [],
      "name": "symbol",
      "outputs": [
        {
          "internalType": "string",
          "name": "",
          "type": "string"
        }
      ],
      "stateMutability": "view",
      "type": "function"
    },
    {
      "inputs": [
        {
          "internalType": "uint256",
          "name": "tokenId",
          "type": "uint256"
        }
      ],
      "name": "tokenURI",
      "outputs": [
        {
          "internalType": "string",
          "name": "",
          "type": "string"
        }
      ],
      "stateMutability": "view",
      "type": "function"
    },
    {
      "inputs": [
        {
          "internalType": "address",
          "name": "from",
          "type": "address"
        },
        {
          "internalType": "address",
          "name": "to",
          "type": "address"
        },
        {
          "internalType": "uint256",
          "name": "tokenId",
          "type": "uint256"
        }
      ],
      "name": "transferFrom",
      "outputs": [],
      "stateMutability": "nonpayable",
      "type": "function"
    },
    {
      "inputs": [
        {
          "internalType": "uint256",
          "name": "_listingPrice",
          "type": "uint256"
        }
      ],
      "name": "updateListingPrice",
      "outputs": [],
      "stateMutability": "payable",
      "type": "function"
    }
  ],
  "bytecode": "0x60806040526658d15e1762800060095534801561001b57600080fd5b506040518060400160405280601081526020017f4d657461766572736520546f6b656e73000000000000000000000000000000008152506040518060400160405280600481526020017f4d4554540000000000000000000000000000000000000000000000000000000081525081600090816100979190610340565b5080600190816100a79190610340565b50505033600a60006101000a81548173ffffffffffffffffffffffffffffffffffffffff021916908373ffffffffffffffffffffffffffffffffffffffff160217905550610412565b600081519050919050565b7f4e487b7100000000000000000000000000000000000000000000000000000000600052604160045260246000fd5b7f4e487b7100000000000000000000000000000000000000000000000000000000600052602260045260246000fd5b6000600282049050600182168061017157607f821691505b6020821081036101845761018361012a565b5b50919050565b60008190508160005260206000209050919050565b60006020601f8301049050919050565b600082821b905092915050565b6000600883026101ec7fffffffffffffffffffffffffffffffffffffffffffffffffffffffffffffffff826101af565b6101f686836101af565b95508019841693508086168417925050509392505050565b6000819050919050565b6000819050919050565b600061023d6102386102338461020e565b610218565b61020e565b9050919050565b6000819050919050565b61025783610222565b61026b61026382610244565b8484546101bc565b825550505050565b600090565b610280610273565b61028b81848461024e565b505050565b5b818110156102af576102a4600082610278565b600181019050610291565b5050565b601f8211156102f4576102c58161018a565b6102ce8461019f565b810160208510156102dd578190505b6102f16102e98561019f565b830182610290565b50505b505050565b600082821c905092915050565b6000610317600019846008026102f9565b1980831691505092915050565b60006103308383610306565b9150826002028217905092915050565b610349826100f0565b67ffffffffffffffff811115610362576103616100fb565b5b61036c8254610159565b6103778282856102b3565b600060209050601f8311600181146103aa5760008415610398578287015190505b6103a28582610324565b86555061040a565b601f1984166103b88661018a565b60005b828110156103e0578489015182556001820191506020850194506020810190506103bb565b868310156103fd57848901516103f9601f891682610306565b8355505b6001600288020188555050505b505050505050565b613c40806104216000396000f3fe6080604052600436106101355760003560e01c806370a08231116100ab578063ae677aa31161006f578063ae677aa31461042f578063b88d4fde1461044b578063be9af53614610474578063c87b56dd14610490578063e219fc75146104cd578063e985e9c5146104e957610135565b806370a082311461034357806372b3b62014610380578063893d20e8146103b057806395d89b41146103db578063a22cb4651461040657610135565b806312e85585116100fd57806312e8558514610233578063202e37401461025e57806323b872dd1461028957806342842e0e146102b257806345f8fa80146102db5780636352211e1461030657610135565b806301ffc9a71461013a57806306fdde0314610177578063081812fc146101a2578063095ea7b3146101df5780630f08efe014610208575b600080fd5b34801561014657600080fd5b50610161600480360381019061015c9190612b27565b610526565b60405161016e9190612b6f565b60405180910390f35b34801561018357600080fd5b5061018c610587565b6040516101999190612c1a565b60405180910390f35b3480156101ae57600080fd5b506101c960048036038101906101c49190612c72565b610619565b6040516101d69190612ce0565b60405180910390f35b3480156101eb57600080fd5b5061020660048036038101906102019190612d27565b610635565b005b34801561021457600080fd5b5061021d61064b565b60405161022a9190612ebd565b60405180910390f35b34801561023f57600080fd5b50610248610898565b6040516102559190612eee565b60405180910390f35b34801561026a57600080fd5b506102736108a2565b6040516102809190612ebd565b60405180910390f35b34801561029557600080fd5b506102b060048036038101906102ab9190612f09565b610b7b565b005b3480156102be57600080fd5b506102d960048036038101906102d49190612f09565b610c7d565b005b3480156102e757600080fd5b506102f0610c9d565b6040516102fd9190612ebd565b60405180910390f35b34801561031257600080fd5b5061032d60048036038101906103289190612c72565b610f76565b60405161033a9190612ce0565b60405180910390f35b34801561034f57600080fd5b5061036a60048036038101906103659190612f5c565b610f88565b6040516103779190612eee565b60405180910390f35b61039a600480360381019061039591906130be565b611042565b6040516103a79190612eee565b60405180910390f35b3480156103bc57600080fd5b506103c5611089565b6040516103d29190612ce0565b60405180910390f35b3480156103e757600080fd5b506103f06110b3565b6040516103fd9190612c1a565b60405180910390f35b34801561041257600080fd5b5061042d60048036038101906104289190613146565b611145565b005b61044960048036038101906104449190612c72565b61115b565b005b34801561045757600080fd5b50610472600480360381019061046d9190613227565b6111f5565b005b61048e60048036038101906104899190612c72565b61121a565b005b34801561049c57600080fd5b506104b760048036038101906104b29190612c72565b611464565b6040516104c49190612c1a565b60405180910390f35b6104e760048036038101906104e291906132aa565b611577565b005b3480156104f557600080fd5b50610510600480360381019061050b91906132ea565b611778565b60405161051d9190612b6f565b60405180910390f35b6000634906490660e01b7bffffffffffffffffffffffffffffffffffffffffffffffffffffffff1916827bffffffffffffffffffffffffffffffffffffffffffffffffffffffff19161480610580575061057f8261180c565b5b9050919050565b60606000805461059690613359565b80601f01602080910402602001604051908101604052809291908181526020018280546105c290613359565b801561060f5780601f106105e45761010080835404028352916020019161060f565b820191906000526020600020905b8154815290600101906020018083116105f257829003601f168201915b5050505050905090565b6000610624826118ee565b5061062e82611976565b9050919050565b61064782826106426119b3565b6119bb565b5050565b606060006007549050600060085460075461066691906133b9565b90506000808267ffffffffffffffff81111561068557610684612f93565b5b6040519080825280602002602001820160405280156106be57816020015b6106ab612a5e565b8152602001906001900390816106a35790505b50905060005b8481101561088d573073ffffffffffffffffffffffffffffffffffffffff16600b60006001846106f491906133ed565b815260200190815260200160002060020160009054906101000a900473ffffffffffffffffffffffffffffffffffffffff1673ffffffffffffffffffffffffffffffffffffffff160361088057600060018261075091906133ed565b90506000600b60008381526020019081526020016000209050806040518060a0016040529081600082015481526020016001820160009054906101000a900473ffffffffffffffffffffffffffffffffffffffff1673ffffffffffffffffffffffffffffffffffffffff1673ffffffffffffffffffffffffffffffffffffffff1681526020016002820160009054906101000a900473ffffffffffffffffffffffffffffffffffffffff1673ffffffffffffffffffffffffffffffffffffffff1673ffffffffffffffffffffffffffffffffffffffff168152602001600382015481526020016004820160009054906101000a900460ff16151515158152505084868151811061086357610862613421565b5b602002602001018190525060018561087b91906133ed565b945050505b80806001019150506106c4565b508094505050505090565b6000600954905090565b60606000600754905060008060005b8381101561094b573373ffffffffffffffffffffffffffffffffffffffff16600b60006001846108e191906133ed565b815260200190815260200160002060020160009054906101000a900473ffffffffffffffffffffffffffffffffffffffff1673ffffffffffffffffffffffffffffffffffffffff160361093e5760018361093b91906133ed565b92505b80806001019150506108b1565b5060008267ffffffffffffffff81111561096857610967612f93565b5b6040519080825280602002602001820160405280156109a157816020015b61098e612a5e565b8152602001906001900390816109865790505b50905060005b84811015610b70573373ffffffffffffffffffffffffffffffffffffffff16600b60006001846109d791906133ed565b815260200190815260200160002060020160009054906101000a900473ffffffffffffffffffffffffffffffffffffffff1673ffffffffffffffffffffffffffffffffffffffff1603610b63576000600182610a3391906133ed565b90506000600b60008381526020019081526020016000209050806040518060a0016040529081600082015481526020016001820160009054906101000a900473ffffffffffffffffffffffffffffffffffffffff1673ffffffffffffffffffffffffffffffffffffffff1673ffffffffffffffffffffffffffffffffffffffff1681526020016002820160009054906101000a900473ffffffffffffffffffffffffffffffffffffffff1673ffffffffffffffffffffffffffffffffffffffff1673ffffffffffffffffffffffffffffffffffffffff168152602001600382015481526020016004820160009054906101000a900460ff161515151581525050848681518110610b4657610b45613421565b5b6020026020010181905250600185610b5e91906133ed565b945050505b80806001019150506109a7565b508094505050505090565b600073ffffffffffffffffffffffffffffffffffffffff168273ffffffffffffffffffffffffffffffffffffffff1603610bed5760006040517f64a0ae92000000000000000000000000000000000000000000000000000000008152600401610be49190612ce0565b60405180910390fd5b6000610c018383610bfc6119b3565b6119cd565b90508373ffffffffffffffffffffffffffffffffffffffff168173ffffffffffffffffffffffffffffffffffffffff1614610c77578382826040517f64283d7b000000000000000000000000000000000000000000000000000000008152600401610c6e93929190613450565b60405180910390fd5b50505050565b610c98838383604051806020016040528060008152506111f5565b505050565b60606000600754905060008060005b83811015610d46573373ffffffffffffffffffffffffffffffffffffffff16600b6000600184610cdc91906133ed565b815260200190815260200160002060010160009054906101000a900473ffffffffffffffffffffffffffffffffffffffff1673ffffffffffffffffffffffffffffffffffffffff1603610d3957600183610d3691906133ed565b92505b8080600101915050610cac565b5060008267ffffffffffffffff811115610d6357610d62612f93565b5b604051908082528060200260200182016040528015610d9c57816020015b610d89612a5e565b815260200190600190039081610d815790505b50905060005b84811015610f6b573373ffffffffffffffffffffffffffffffffffffffff16600b6000600184610dd291906133ed565b815260200190815260200160002060010160009054906101000a900473ffffffffffffffffffffffffffffffffffffffff1673ffffffffffffffffffffffffffffffffffffffff1603610f5e576000600182610e2e91906133ed565b90506000600b60008381526020019081526020016000209050806040518060a0016040529081600082015481526020016001820160009054906101000a900473ffffffffffffffffffffffffffffffffffffffff1673ffffffffffffffffffffffffffffffffffffffff1673ffffffffffffffffffffffffffffffffffffffff1681526020016002820160009054906101000a900473ffffffffffffffffffffffffffffffffffffffff1673ffffffffffffffffffffffffffffffffffffffff1673ffffffffffffffffffffffffffffffffffffffff168152602001600382015481526020016004820160009054906101000a900460ff161515151581525050848681518110610f4157610f40613421565b5b6020026020010181905250600185610f5991906133ed565b945050505b8080600101915050610da2565b508094505050505090565b6000610f81826118ee565b9050919050565b60008073ffffffffffffffffffffffffffffffffffffffff168273ffffffffffffffffffffffffffffffffffffffff1603610ffb5760006040517f89c62b64000000000000000000000000000000000000000000000000000000008152600401610ff29190612ce0565b60405180910390fd5b600360008373ffffffffffffffffffffffffffffffffffffffff1673ffffffffffffffffffffffffffffffffffffffff168152602001908152602001600020549050919050565b600060076000815461105390613487565b919050819055506000600754905061106b3382611be7565b6110758185611ce0565b61107f8184611d3c565b8091505092915050565b6000600a60009054906101000a900473ffffffffffffffffffffffffffffffffffffffff16905090565b6060600180546110c290613359565b80601f01602080910402602001604051908101604052809291908181526020018280546110ee90613359565b801561113b5780601f106111105761010080835404028352916020019161113b565b820191906000526020600020905b81548152906001019060200180831161111e57829003601f168201915b5050505050905090565b6111576111506119b3565b8383611f3f565b5050565b3373ffffffffffffffffffffffffffffffffffffffff16600a60009054906101000a900473ffffffffffffffffffffffffffffffffffffffff1673ffffffffffffffffffffffffffffffffffffffff16146111eb576040517f08c379a00000000000000000000000000000000000000000000000000000000081526004016111e290613541565b60405180910390fd5b8060098190555050565b611200848484610b7b565b61121461120b6119b3565b858585856120ae565b50505050565b6000600b60008381526020019081526020016000206003015490506000600b600084815260200190815260200160002060010160009054906101000a900473ffffffffffffffffffffffffffffffffffffffff1690508134146112b2576040517f08c379a00000000000000000000000000000000000000000000000000000000081526004016112a9906135d3565b60405180910390fd5b33600b600085815260200190815260200160002060020160006101000a81548173ffffffffffffffffffffffffffffffffffffffff021916908373ffffffffffffffffffffffffffffffffffffffff1602179055506001600b600085815260200190815260200160002060040160006101000a81548160ff0219169083151502179055506000600b600085815260200190815260200160002060010160006101000a81548173ffffffffffffffffffffffffffffffffffffffff021916908373ffffffffffffffffffffffffffffffffffffffff16021790555060086000815461139b90613487565b919050819055506113ad30338561225f565b600a60009054906101000a900473ffffffffffffffffffffffffffffffffffffffff1673ffffffffffffffffffffffffffffffffffffffff166108fc6009549081150290604051600060405180830381858888f19350505050158015611417573d6000803e3d6000fd5b508073ffffffffffffffffffffffffffffffffffffffff166108fc349081150290604051600060405180830381858888f1935050505015801561145e573d6000803e3d6000fd5b50505050565b606061146f826118ee565b50600060066000848152602001908152602001600020805461149090613359565b80601f01602080910402602001604051908101604052809291908181526020018280546114bc90613359565b80156115095780601f106114de57610100808354040283529160200191611509565b820191906000526020600020905b8154815290600101906020018083116114ec57829003601f168201915b50505050509050600061151a6123cc565b9050600081510361152f578192505050611572565b60008251111561156457808260405160200161154c92919061362f565b60405160208183030381529060405292505050611572565b61156d846123e3565b925050505b919050565b3373ffffffffffffffffffffffffffffffffffffffff16600b600084815260200190815260200160002060020160009054906101000a900473ffffffffffffffffffffffffffffffffffffffff1673ffffffffffffffffffffffffffffffffffffffff161461161b576040517f08c379a0000000000000000000000000000000000000000000000000000000008152600401611612906136c5565b60405180910390fd5b600954341461165f576040517f08c379a000000000000000000000000000000000000000000000000000000000815260040161165690613757565b60405180910390fd5b6000600b600084815260200190815260200160002060040160006101000a81548160ff02191690831515021790555080600b60008481526020019081526020016000206003018190555033600b600084815260200190815260200160002060010160006101000a81548173ffffffffffffffffffffffffffffffffffffffff021916908373ffffffffffffffffffffffffffffffffffffffff16021790555030600b600084815260200190815260200160002060020160006101000a81548173ffffffffffffffffffffffffffffffffffffffff021916908373ffffffffffffffffffffffffffffffffffffffff16021790555060086000815461176290613777565b9190508190555061177433308461225f565b5050565b6000600560008473ffffffffffffffffffffffffffffffffffffffff1673ffffffffffffffffffffffffffffffffffffffff16815260200190815260200160002060008373ffffffffffffffffffffffffffffffffffffffff1673ffffffffffffffffffffffffffffffffffffffff16815260200190815260200160002060009054906101000a900460ff16905092915050565b60007f80ac58cd000000000000000000000000000000000000000000000000000000007bffffffffffffffffffffffffffffffffffffffffffffffffffffffff1916827bffffffffffffffffffffffffffffffffffffffffffffffffffffffff191614806118d757507f5b5e139f000000000000000000000000000000000000000000000000000000007bffffffffffffffffffffffffffffffffffffffffffffffffffffffff1916827bffffffffffffffffffffffffffffffffffffffffffffffffffffffff1916145b806118e757506118e68261244c565b5b9050919050565b6000806118fa836124b6565b9050600073ffffffffffffffffffffffffffffffffffffffff168173ffffffffffffffffffffffffffffffffffffffff160361196d57826040517f7e2732890000000000000000000000000000000000000000000000000000000081526004016119649190612eee565b60405180910390fd5b80915050919050565b60006004600083815260200190815260200160002060009054906101000a900473ffffffffffffffffffffffffffffffffffffffff169050919050565b600033905090565b6119c883838360016124f3565b505050565b6000806119d9846124b6565b9050600073ffffffffffffffffffffffffffffffffffffffff168373ffffffffffffffffffffffffffffffffffffffff1614611a1b57611a1a8184866126b8565b5b600073ffffffffffffffffffffffffffffffffffffffff168173ffffffffffffffffffffffffffffffffffffffff1614611aac57611a5d6000856000806124f3565b6001600360008373ffffffffffffffffffffffffffffffffffffffff1673ffffffffffffffffffffffffffffffffffffffff168152602001908152602001600020600082825403925050819055505b600073ffffffffffffffffffffffffffffffffffffffff168573ffffffffffffffffffffffffffffffffffffffff1614611b2f576001600360008773ffffffffffffffffffffffffffffffffffffffff1673ffffffffffffffffffffffffffffffffffffffff168152602001908152602001600020600082825401925050819055505b846002600086815260200190815260200160002060006101000a81548173ffffffffffffffffffffffffffffffffffffffff021916908373ffffffffffffffffffffffffffffffffffffffff160217905550838573ffffffffffffffffffffffffffffffffffffffff168273ffffffffffffffffffffffffffffffffffffffff167fddf252ad1be2c89b69c2b068fc378daa952ba7f163c4a11628f55a4df523b3ef60405160405180910390a4809150509392505050565b600073ffffffffffffffffffffffffffffffffffffffff168273ffffffffffffffffffffffffffffffffffffffff1603611c595760006040517f64a0ae92000000000000000000000000000000000000000000000000000000008152600401611c509190612ce0565b60405180910390fd5b6000611c67838360006119cd565b9050600073ffffffffffffffffffffffffffffffffffffffff168173ffffffffffffffffffffffffffffffffffffffff1614611cdb5760006040517f73c6ac6e000000000000000000000000000000000000000000000000000000008152600401611cd29190612ce0565b60405180910390fd5b505050565b80600660008481526020019081526020016000209081611d00919061394c565b507ff8e1a15aba9398e019f0b49df1a4fde98ee17ae345cb5f6b5e2c27f5033e8ce782604051611d309190612eee565b60405180910390a15050565b60008111611d7f576040517f08c379a0000000000000000000000000000000000000000000000000000000008152600401611d7690613a6a565b60405180910390fd5b6009543414611dc3576040517f08c379a0000000000000000000000000000000000000000000000000000000008152600401611dba90613757565b60405180910390fd5b6040518060a001604052808381526020013373ffffffffffffffffffffffffffffffffffffffff1681526020013073ffffffffffffffffffffffffffffffffffffffff16815260200182815260200160001515815250600b60008481526020019081526020016000206000820151816000015560208201518160010160006101000a81548173ffffffffffffffffffffffffffffffffffffffff021916908373ffffffffffffffffffffffffffffffffffffffff16021790555060408201518160020160006101000a81548173ffffffffffffffffffffffffffffffffffffffff021916908373ffffffffffffffffffffffffffffffffffffffff1602179055506060820151816003015560808201518160040160006101000a81548160ff021916908315150217905550905050611efc33308461225f565b817fb640004f1d14576d0c209e240cad0410e0d8c0c33a09375861fbadae2588a98d3330846000604051611f339493929190613a8a565b60405180910390a25050565b600073ffffffffffffffffffffffffffffffffffffffff168273ffffffffffffffffffffffffffffffffffffffff1603611fb057816040517f5b08ba18000000000000000000000000000000000000000000000000000000008152600401611fa79190612ce0565b60405180910390fd5b80600560008573ffffffffffffffffffffffffffffffffffffffff1673ffffffffffffffffffffffffffffffffffffffff16815260200190815260200160002060008473ffffffffffffffffffffffffffffffffffffffff1673ffffffffffffffffffffffffffffffffffffffff16815260200190815260200160002060006101000a81548160ff0219169083151502179055508173ffffffffffffffffffffffffffffffffffffffff168373ffffffffffffffffffffffffffffffffffffffff167f17307eab39ab6107e8899845ad3d59bd9653f200f220920489ca2b5937696c31836040516120a19190612b6f565b60405180910390a3505050565b60008373ffffffffffffffffffffffffffffffffffffffff163b1115612258578273ffffffffffffffffffffffffffffffffffffffff1663150b7a02868685856040518563ffffffff1660e01b815260040161210d9493929190613b24565b6020604051808303816000875af192505050801561214957506040513d601f19601f820116820180604052508101906121469190613b85565b60015b6121cd573d8060008114612179576040519150601f19603f3d011682016040523d82523d6000602084013e61217e565b606091505b5060008151036121c557836040517f64a0ae920000000000000000000000000000000000000000000000000000000081526004016121bc9190612ce0565b60405180910390fd5b805181602001fd5b63150b7a0260e01b7bffffffffffffffffffffffffffffffffffffffffffffffffffffffff1916817bffffffffffffffffffffffffffffffffffffffffffffffffffffffff19161461225657836040517f64a0ae9200000000000000000000000000000000000000000000000000000000815260040161224d9190612ce0565b60405180910390fd5b505b5050505050565b600073ffffffffffffffffffffffffffffffffffffffff168273ffffffffffffffffffffffffffffffffffffffff16036122d15760006040517f64a0ae920000000000000000000000000000000000000000000000000000000081526004016122c89190612ce0565b60405180910390fd5b60006122df838360006119cd565b9050600073ffffffffffffffffffffffffffffffffffffffff168173ffffffffffffffffffffffffffffffffffffffff160361235257816040517f7e2732890000000000000000000000000000000000000000000000000000000081526004016123499190612eee565b60405180910390fd5b8373ffffffffffffffffffffffffffffffffffffffff168173ffffffffffffffffffffffffffffffffffffffff16146123c6578382826040517f64283d7b0000000000000000000000000000000000000000000000000000000081526004016123bd93929190613450565b60405180910390fd5b50505050565b606060405180602001604052806000815250905090565b60606123ee826118ee565b5060006123f96123cc565b905060008151116124195760405180602001604052806000815250612444565b806124238461277c565b60405160200161243492919061362f565b6040516020818303038152906040525b915050919050565b60007f01ffc9a7000000000000000000000000000000000000000000000000000000007bffffffffffffffffffffffffffffffffffffffffffffffffffffffff1916827bffffffffffffffffffffffffffffffffffffffffffffffffffffffff1916149050919050565b60006002600083815260200190815260200160002060009054906101000a900473ffffffffffffffffffffffffffffffffffffffff169050919050565b808061252c5750600073ffffffffffffffffffffffffffffffffffffffff168273ffffffffffffffffffffffffffffffffffffffff1614155b1561266057600061253c846118ee565b9050600073ffffffffffffffffffffffffffffffffffffffff168373ffffffffffffffffffffffffffffffffffffffff16141580156125a757508273ffffffffffffffffffffffffffffffffffffffff168173ffffffffffffffffffffffffffffffffffffffff1614155b80156125ba57506125b88184611778565b155b156125fc57826040517fa9fbf51f0000000000000000000000000000000000000000000000000000000081526004016125f39190612ce0565b60405180910390fd5b811561265e57838573ffffffffffffffffffffffffffffffffffffffff168273ffffffffffffffffffffffffffffffffffffffff167f8c5be1e5ebec7d5bd14f71427d1e84f3dd0314c0f7b2291e5b200ac8c7c3b92560405160405180910390a45b505b836004600085815260200190815260200160002060006101000a81548173ffffffffffffffffffffffffffffffffffffffff021916908373ffffffffffffffffffffffffffffffffffffffff16021790555050505050565b6126c383838361284a565b61277757600073ffffffffffffffffffffffffffffffffffffffff168373ffffffffffffffffffffffffffffffffffffffff160361273857806040517f7e27328900000000000000000000000000000000000000000000000000000000815260040161272f9190612eee565b60405180910390fd5b81816040517f177e802f00000000000000000000000000000000000000000000000000000000815260040161276e929190613bb2565b60405180910390fd5b505050565b60606000600161278b8461290b565b01905060008167ffffffffffffffff8111156127aa576127a9612f93565b5b6040519080825280601f01601f1916602001820160405280156127dc5781602001600182028036833780820191505090505b509050600082602001820190505b60011561283f578080600190039150507f3031323334353637383961626364656600000000000000000000000000000000600a86061a8153600a858161283357612832613bdb565b5b049450600085036127ea575b819350505050919050565b60008073ffffffffffffffffffffffffffffffffffffffff168373ffffffffffffffffffffffffffffffffffffffff161415801561290257508273ffffffffffffffffffffffffffffffffffffffff168473ffffffffffffffffffffffffffffffffffffffff1614806128c357506128c28484611778565b5b8061290157508273ffffffffffffffffffffffffffffffffffffffff166128e983611976565b73ffffffffffffffffffffffffffffffffffffffff16145b5b90509392505050565b600080600090507a184f03e93ff9f4daa797ed6e38ed64bf6a1f0100000000000000008310612969577a184f03e93ff9f4daa797ed6e38ed64bf6a1f010000000000000000838161295f5761295e613bdb565b5b0492506040810190505b6d04ee2d6d415b85acef810000000083106129a6576d04ee2d6d415b85acef8100000000838161299c5761299b613bdb565b5b0492506020810190505b662386f26fc1000083106129d557662386f26fc1000083816129cb576129ca613bdb565b5b0492506010810190505b6305f5e10083106129fe576305f5e10083816129f4576129f3613bdb565b5b0492506008810190505b6127108310612a23576127108381612a1957612a18613bdb565b5b0492506004810190505b60648310612a465760648381612a3c57612a3b613bdb565b5b0492506002810190505b600a8310612a55576001810190505b80915050919050565b6040518060a0016040528060008152602001600073ffffffffffffffffffffffffffffffffffffffff168152602001600073ffffffffffffffffffffffffffffffffffffffff168152602001600081526020016000151581525090565b6000604051905090565b600080fd5b600080fd5b60007fffffffff0000000000000000000000000000000000000000000000000000000082169050919050565b612b0481612acf565b8114612b0f57600080fd5b50565b600081359050612b2181612afb565b92915050565b600060208284031215612b3d57612b3c612ac5565b5b6000612b4b84828501612b12565b91505092915050565b60008115159050919050565b612b6981612b54565b82525050565b6000602082019050612b846000830184612b60565b92915050565b600081519050919050565b600082825260208201905092915050565b60005b83811015612bc4578082015181840152602081019050612ba9565b60008484015250505050565b6000601f19601f8301169050919050565b6000612bec82612b8a565b612bf68185612b95565b9350612c06818560208601612ba6565b612c0f81612bd0565b840191505092915050565b60006020820190508181036000830152612c348184612be1565b905092915050565b6000819050919050565b612c4f81612c3c565b8114612c5a57600080fd5b50565b600081359050612c6c81612c46565b92915050565b600060208284031215612c8857612c87612ac5565b5b6000612c9684828501612c5d565b91505092915050565b600073ffffffffffffffffffffffffffffffffffffffff82169050919050565b6000612cca82612c9f565b9050919050565b612cda81612cbf565b82525050565b6000602082019050612cf56000830184612cd1565b92915050565b612d0481612cbf565b8114612d0f57600080fd5b50565b600081359050612d2181612cfb565b92915050565b60008060408385031215612d3e57612d3d612ac5565b5b6000612d4c85828601612d12565b9250506020612d5d85828601612c5d565b9150509250929050565b600081519050919050565b600082825260208201905092915050565b6000819050602082019050919050565b612d9c81612c3c565b82525050565b6000612dad82612c9f565b9050919050565b612dbd81612da2565b82525050565b612dcc81612b54565b82525050565b60a082016000820151612de86000850182612d93565b506020820151612dfb6020850182612db4565b506040820151612e0e6040850182612db4565b506060820151612e216060850182612d93565b506080820151612e346080850182612dc3565b50505050565b6000612e468383612dd2565b60a08301905092915050565b6000602082019050919050565b6000612e6a82612d67565b612e748185612d72565b9350612e7f83612d83565b8060005b83811015612eb0578151612e978882612e3a565b9750612ea283612e52565b925050600181019050612e83565b5085935050505092915050565b60006020820190508181036000830152612ed78184612e5f565b905092915050565b612ee881612c3c565b82525050565b6000602082019050612f036000830184612edf565b92915050565b600080600060608486031215612f2257612f21612ac5565b5b6000612f3086828701612d12565b9350506020612f4186828701612d12565b9250506040612f5286828701612c5d565b9150509250925092565b600060208284031215612f7257612f71612ac5565b5b6000612f8084828501612d12565b91505092915050565b600080fd5b600080fd5b7f4e487b7100000000000000000000000000000000000000000000000000000000600052604160045260246000fd5b612fcb82612bd0565b810181811067ffffffffffffffff82111715612fea57612fe9612f93565b5b80604052505050565b6000612ffd612abb565b90506130098282612fc2565b919050565b600067ffffffffffffffff82111561302957613028612f93565b5b61303282612bd0565b9050602081019050919050565b82818337600083830152505050565b600061306161305c8461300e565b612ff3565b90508281526020810184848401111561307d5761307c612f8e565b5b61308884828561303f565b509392505050565b600082601f8301126130a5576130a4612f89565b5b81356130b584826020860161304e565b91505092915050565b600080604083850312156130d5576130d4612ac5565b5b600083013567ffffffffffffffff8111156130f3576130f2612aca565b5b6130ff85828601613090565b925050602061311085828601612c5d565b9150509250929050565b61312381612b54565b811461312e57600080fd5b50565b6000813590506131408161311a565b92915050565b6000806040838503121561315d5761315c612ac5565b5b600061316b85828601612d12565b925050602061317c85828601613131565b9150509250929050565b600067ffffffffffffffff8211156131a1576131a0612f93565b5b6131aa82612bd0565b9050602081019050919050565b60006131ca6131c584613186565b612ff3565b9050828152602081018484840111156131e6576131e5612f8e565b5b6131f184828561303f565b509392505050565b600082601f83011261320e5761320d612f89565b5b813561321e8482602086016131b7565b91505092915050565b6000806000806080858703121561324157613240612ac5565b5b600061324f87828801612d12565b945050602061326087828801612d12565b935050604061327187828801612c5d565b925050606085013567ffffffffffffffff81111561329257613291612aca565b5b61329e878288016131f9565b91505092959194509250565b600080604083850312156132c1576132c0612ac5565b5b60006132cf85828601612c5d565b92505060206132e085828601612c5d565b9150509250929050565b6000806040838503121561330157613300612ac5565b5b600061330f85828601612d12565b925050602061332085828601612d12565b9150509250929050565b7f4e487b7100000000000000000000000000000000000000000000000000000000600052602260045260246000fd5b6000600282049050600182168061337157607f821691505b6020821081036133845761338361332a565b5b50919050565b7f4e487b7100000000000000000000000000000000000000000000000000000000600052601160045260246000fd5b60006133c482612c3c565b91506133cf83612c3c565b92508282039050818111156133e7576133e661338a565b5b92915050565b60006133f882612c3c565b915061340383612c3c565b925082820190508082111561341b5761341a61338a565b5b92915050565b7f4e487b7100000000000000000000000000000000000000000000000000000000600052603260045260246000fd5b60006060820190506134656000830186612cd1565b6134726020830185612edf565b61347f6040830184612cd1565b949350505050565b600061349282612c3c565b91507fffffffffffffffffffffffffffffffffffffffffffffffffffffffffffffffff82036134c4576134c361338a565b5b600182019050919050565b7f4f6e6c79206d61726b6574706c616365206f776e65722063616e20757064617460008201527f65206c697374696e672070726963652e00000000000000000000000000000000602082015250565b600061352b603083612b95565b9150613536826134cf565b604082019050919050565b6000602082019050818103600083015261355a8161351e565b9050919050565b7f506c65617365207375626d6974207468652061736b696e67207072696365206960008201527f6e206f7264657220746f20636f6d706c65746520746865207075726368617365602082015250565b60006135bd604083612b95565b91506135c882613561565b604082019050919050565b600060208201905081810360008301526135ec816135b0565b9050919050565b600081905092915050565b600061360982612b8a565b61361381856135f3565b9350613623818560208601612ba6565b80840191505092915050565b600061363b82856135fe565b915061364782846135fe565b91508190509392505050565b7f4f6e6c79206974656d206f776e65722063616e20706572666f726d207468697360008201527f206f7065726174696f6e00000000000000000000000000000000000000000000602082015250565b60006136af602a83612b95565b91506136ba82613653565b604082019050919050565b600060208201905081810360008301526136de816136a2565b9050919050565b7f5072696365206d75737420626520657175616c20746f206c697374696e67207060008201527f7269636500000000000000000000000000000000000000000000000000000000602082015250565b6000613741602483612b95565b915061374c826136e5565b604082019050919050565b6000602082019050818103600083015261377081613734565b9050919050565b600061378282612c3c565b9150600082036137955761379461338a565b5b600182039050919050565b60008190508160005260206000209050919050565b60006020601f8301049050919050565b600082821b905092915050565b6000600883026138027fffffffffffffffffffffffffffffffffffffffffffffffffffffffffffffffff826137c5565b61380c86836137c5565b95508019841693508086168417925050509392505050565b6000819050919050565b600061384961384461383f84612c3c565b613824565b612c3c565b9050919050565b6000819050919050565b6138638361382e565b61387761386f82613850565b8484546137d2565b825550505050565b600090565b61388c61387f565b61389781848461385a565b505050565b5b818110156138bb576138b0600082613884565b60018101905061389d565b5050565b601f821115613900576138d1816137a0565b6138da846137b5565b810160208510156138e9578190505b6138fd6138f5856137b5565b83018261389c565b50505b505050565b600082821c905092915050565b600061392360001984600802613905565b1980831691505092915050565b600061393c8383613912565b9150826002028217905092915050565b61395582612b8a565b67ffffffffffffffff81111561396e5761396d612f93565b5b6139788254613359565b6139838282856138bf565b600060209050601f8311600181146139b657600084156139a4578287015190505b6139ae8582613930565b865550613a16565b601f1984166139c4866137a0565b60005b828110156139ec578489015182556001820191506020850194506020810190506139c7565b86831015613a095784890151613a05601f891682613912565b8355505b6001600288020188555050505b505050505050565b7f5072696365206d757374206265206174206c6561737420312077656900000000600082015250565b6000613a54601c83612b95565b9150613a5f82613a1e565b602082019050919050565b60006020820190508181036000830152613a8381613a47565b9050919050565b6000608082019050613a9f6000830187612cd1565b613aac6020830186612cd1565b613ab96040830185612edf565b613ac66060830184612b60565b95945050505050565b600081519050919050565b600082825260208201905092915050565b6000613af682613acf565b613b008185613ada565b9350613b10818560208601612ba6565b613b1981612bd0565b840191505092915050565b6000608082019050613b396000830187612cd1565b613b466020830186612cd1565b613b536040830185612edf565b8181036060830152613b658184613aeb565b905095945050505050565b600081519050613b7f81612afb565b92915050565b600060208284031215613b9b57613b9a612ac5565b5b6000613ba984828501613b70565b91505092915050565b6000604082019050613bc76000830185612cd1565b613bd46020830184612edf565b9392505050565b7f4e487b7100000000000000000000000000000000000000000000000000000000600052601260045260246000fdfea2646970667358221220a78465e831917a27d896af5c65b5a1a6a6ed75dc276ed140759d4905aee3c17e64736f6c634300081c0033",
  "linkReferences": {},
  "deployedLinkReferences": {}
}